:0400000051EF00F0CC
:0C000800FACF13F0FBCF14F06BEFA2F066
:10001800D8CF01F0E8CF02F0E0CF03F0FACF04F038
:10002800FBCF05F0E9CF06F0EACF07F0E1CF08F003
:10003800E2CF09F0D9CF0AF0DACF0BF0F3CF0CF00A
:10004800F4CF0DF0F6CF0EF0F7CF0FF0F8CF10F099
:10005800F5CF11F011C0F5FF10C0F8FF0FC0F7FF82
:100068000EC0F6FF0DC0F4FF0CC0F3FF0BC0DAFFA3
:100078000AC0D9FF09C0E2FF08C0E1FF07C0EAFFD4
:1000880006C0E9FF05C0FBFF04C0FAFF03C0E0FF9C
:0E00980002C0E8FF01C0D8FF10003DEFA6F047
:10FD90000041542B48545450504152413D22434F4E
:10FDA0004E54454E54222C226170706C696361740C
:10FDB000696F6E2F782D7777772D666F726D2D7541
:10FDC000726C656E636F646564220041542B485405
:10FDD0005450504152413D2255524C222C22636CCA
:10FDE0006F7564696170726F6A6563742E6F726794
:10FDF0002F646174612F220041542B5341504252B1
:10FE00003D332C312C2241504E222C2274696D2E10
:10FE10006272220041542B53415042523D332C31E7
:10FE20002C2255534552222C2274696D22004154D4
:10FE30002B53415042523D332C312C2250574422F7
:10FE40002C2274696D2200646174613D7B2273749D
:10FE50006174696F6E6D657373616765223A7B00CB
:10FE60005D7D7D202020202020202020202020209B
:10FE700020202020200041542B48545450504152FF
:10FE8000413D22434944222C3100222C22737461CB
:10FE900074696F6E6964223A2200222C2276616CAA
:10FEA000756574797065223A2200222C2265766588
:10FEB0006E7474797065223A22007B2273656E73CA
:10FEC0006F72756E6974223A220041542B48545463
:10FED00050414354494F4E3D300041542B485454F7
:10FEE00050414354494F4E3D3100222C22646174ED
:10FEF0006574696D65223A2200726567756C61727E
:10FF000072656164696E670041542B5341504252DF
:10FF10003D312C310041542B4854545044415441FC
:10FF20003D00222C2276616C7565223A22004154F4
:10FF30002B4950523D393630300041542B485454EF
:10FF400050524541440041542B485454505445525A
:10FF50004D0041542B48545450494E495400222CD2
:10FF6000226576656E74223A5B00222C22646174ED
:10FF700061223A5B007375303030332D30310073BD
:10FF800075303030325F3031007375303030345F6F
:10FF90003031007375303030345F30320041542BD3
:10FFA00043434C4B3F00646570617274200D007BCD
:10FFB000226964223A2200286E756C6C29007375E0
:10FFC0003030303200627261303032007375303060
:10FFD0003033007375303030340025735D7D2C0074
:10FFE000323030303000257325730061736973003F
:10FFF00025735D7D00227D2C00610062007200008F
:020000040001F9
:10000000000E01010101C76F000E0101C66F000E55
:1000100001010101DF6F000E0101DE6F000E010121
:100020000101C96F000E0101C86F000E010101013D
:10003000E16F000E0101E06F000E01010101CB6FC5
:10004000000E0101CA6F000E01010101E36F000EF5
:100050000101E26F000E01010101CD6F000E0101EF
:10006000CC6F000E01010101E56F000E0101E46F8C
:1000700020EE6AF011EEBCF00A0EDECFE6FFE82EAD
:10008000FCD7000EE8CF80F2000EE8CF81F2000E20
:10009000E8CF82F2000EE8CF83F2020E00010001E9
:1000A000C96F800E00010001C86FFF0E0001000142
:1000B000CB6FE60E00010001CA6F020E00010001C5
:1000C000CD6F800E00010001CC6FFE0E000100011B
:1000D000CF6F470E00010001CE6FAEECA1F0020E13
:1000E00000010001C96F800E00010001C86FFF0E02
:1000F00000010001CB6FE60E00010001CA6F020E85
:1001000000010001CD6F800E00010001CC6FFE0EDA
:1001100000010001CF6FEC0E00010001CE6FAEECCC
:10012000A1F0020E00010001C96F800E0001000164
:10013000C86FFF0E00010001CB6FE60E0001000149
:10014000CA6F020E00010001CD6F800E0001000198
:10015000CC6F0001000E00010001CF6F00019B0E6B
:1001600000010001CE6FAEECA1F0020E0001000113
:10017000C96F800E00010001C86FFF0E0001000171
:10018000CB6FE60E00010001CA6F020E00010001F4
:10019000CD6F800E00010001CC6FFE0E000100014A
:1001A000CF6F8A0E00010001CE6FAEECA1F0020EFF
:1001B00000010001C96F800E00010001C86FFF0E31
:1001C00000010001CB6FE60E00010001CA6F020EB4
:1001D00000010001CD6F800E00010001CC6FFF0E09
:1001E00000010001CF6FC50E00010001CE6FAEEC23
:1001F000A1F0020E00010001C96F800E0001000194
:10020000C86FFF0E00010001CB6FE60E0001000178
:10021000CA6F020E00010001CD6F800E00010001C7
:10022000CC6FFE0E00010001CF6FAA0E000100018D
:10023000CE6FAEECA1F0020E00010001C96F800E7E
:1002400000010001C86FFF0E00010001CB6FE60E38
:1002500000010001CA6F020E00010001CD6F800E87
:1002600000010001CC6FFE0E00010001CF6FF90EFE
:1002700000010001CE6FAEECA1F0020E0001000102
:10028000C96F800E00010001C86FFF0E0001000160
:10029000CB6FE60E00010001CA6F020E00010001E3
:1002A000CD6F800E00010001CC6FFF0E0001000138
:1002B000CF6F5E0E00010001CE6FAEECA1F0000129
:1002C000000185518411D8B45AD2020E00010001F8
:1002D000C96F800E00010001C86FFF0E0001000110
:1002E000CB6FE60E00010001CA6F020E0001000193
:1002F000CD6F800E00010001CC6FFE0E00010001E9
:10030000CF6FBA0E00010001CE6FAEECA1F0020E6D
:1003100000010001C96F800E00010001C86FFF0ECF
:1003200000010001CB6FE60E00010001CA6F020E52
:1003300000010001CD6F800E00010001CC6FFF0EA7
:1003400000010001CF6FCC0E00010001CE6FAEECBA
:10035000A1F0020E00010001C96F800E0001000132
:10036000C86FFF0E00010001CB6FE60E0001000117
:10037000CA6F020E00010001CD6F800E0001000166
:10038000CC6FFF0E00010001CF6F6A0E000100016B
:10039000CE6FAEECA1F0000E01010101CF6F000E97
:1003A0000101CE6FC7D1020E00010001C96F800E9E
:1003B00000010001C86FFF0E00010001CB6FE60EC7
:1003C00000010001CA6F020E00010001CD6F800E16
:1003D00000010001CC6FFF0E00010001CF6FAF0ED6
:1003E00000010001CE6FAEECA1F0020E0001000191
:1003F000C96F800E00010001C86FFF0E00010001EF
:10040000CB6FE60E00010001CA6F020E0001000171
:10041000CD6F800E00010001CC6FFF0E00010001C6
:10042000CF6F750E00010001CE6FAEECA1F0020E91
:1004300000010001C96F800E00010001C86FFF0EAE
:1004400000010001CB6FE60E00010001CA6F020E31
:1004500000010001CD6F800E00010001CC6FFE0E87
:1004600000010001CF6FEA0E00010001CE6FAEEC7B
:10047000A1F0020E00010001C96F800E0001000111
:10048000C86FFF0E00010001CB6FE60E00010001F6
:10049000CA6F020E00010001CD6F800E0001000145
:1004A000CC6F0001000E00010001CF6F0001B60EFD
:1004B00000010001CE6FAEECA1F0DEC1C2F0DFC1E1
:1004C000C3F0000E00010001C56F1C0E0001C46FD7
:1004D000E9ECA6F00C0E00010001C227000E00019D
:1004E000C3235C0E00010001C225D96E080E000175
:1004F0000001C321DA6E000EDE6E000EDD6E020E0C
:1005000000010001C96F800E00010001C86FFF0EDD
:1005100000010001CB6FE60E00010001CA6F020E60
:1005200000010001CD6F800E00010001CC6FFE0EB6
:1005300000010001CF6F9A0E00010001CE6FAEECFA
:10054000A1F0020E00010001C96F800E0001000140
:10055000C86FFF0E00010001CB6FE60E0001000125
:10056000CA6F020E00010001CD6F800E0001000174
:10057000CC6FFF0E00010001CF6FEB0E00010001F8
:10058000CE6FAEECA1F0020E00010001C96F800E2B
:1005900000010001C86FFF0E00010001CB6FE60EE5
:1005A00000010001CA6F020E00010001CD6F800E34
:1005B00000010001CC6FFF0E00010001CF6F220E81
:1005C00000010001CE6FAEECA1F0020E00010001AF
:1005D000C96F800E00010001C86FFF0E000100010D
:1005E000CB6FE60E00010001CA6F020E0001000190
:1005F000CD6F800E00010001CC6FDEC1C2F0DFC103
:10060000C3F0000E00010001C56F1C0E0001C46F95
:10061000E9ECA6F0070E00010001C227000E000160
:10062000C3235C0E0001DA6F080EDB6F00010001CE
:10063000C2510001DA2700010001C3510001DB2390
:10064000DAC0CEF0DBC0CFF0AEECA1F0000E0101BD
:100650000101D76F000E0101D66F01010101D751D1
:10066000800A800F060ED8B4D65DD8B039D0DEC16E
:10067000C2F0DFC1C3F0000E00010001C56F1C0E07
:100680000001C46FE9ECA6F0070E01010101D625B7
:100690000001DA6F000E01010101D7210001DB6FBB
:1006A0005C0E0001DC6F080EDD6F0001DA51000105
:1006B000DC270001DB510001DD2300010001C251F4
:1006C0000001DC25D96E00010001C3510001DD21CC
:1006D000DA6E000EDF6E01010101D64BD72BBDD7BC
:1006E00001010101DE4BDF2B020E00010001C96F89
:1006F000800E00010001C86FFF0E00010001CB6FEA
:10070000E60E00010001CA6F020E00010001CD6F6C
:10071000800E00010001CC6FFF0E00010001CF6FC1
:10072000F50E00010001CE6FAEECA1F00101010158
:10073000CE4BCF2BFF0E0001DA6FFF0EDB6F0001F7
:1007400084C0DCF0000185C0DDF00001DA51000159
:10075000DC270001DB510001DD230001DD51800AAF
:100760000001DE6F01010101CE510001DC5D0101DC
:100770000101CF51800A0001DE59D8B014D6000122
:10078000000189518811D8B469D200010001855156
:100790008411D8B41AD0020E00010001C96F800E76
:1007A00000010001C86FFF0E00010001CB6FDA0EDF
:1007B00000010001CA6F020E00010001CD6F800E22
:1007C00000010001CC6FAEECA1F0020E00010001AF
:1007D000C96F800E00010001C86FFF0E000100010B
:1007E000CB6FE60E00010001CA6F020E000100018E
:1007F000CD6F800E00010001CC6FFE0E00010001E4
:10080000CF6FBA0E00010001CE6FAEECA1F0020E68
:1008100000010001C96F800E00010001C86FFF0ECA
:1008200000010001CB6FE60E00010001CA6F020E4D
:1008300000010001CD6F800E00010001CC6FFF0EA2
:1008400000010001CF6FBE0E00010001CE6FAEECC3
:10085000A1F0020E00010001C96F800E000100012D
:10086000C86FFF0E00010001CB6FE60E0001000112
:10087000CA6F020E00010001CD6F800E0001000161
:10088000CC6FFF0E00010001CF6F6A0E0001000166
:10089000CE6FAEECA1F0000E01010101D16F000E90
:1008A0000101D06FB6D1020E00010001C96F800EA8
:1008B00000010001C86FFF0E00010001CB6FE60EC2
:1008C00000010001CA6F020E00010001CD6F800E11
:1008D00000010001CC6FFF0E00010001CF6FAF0ED1
:1008E00000010001CE6FAEECA1F0020E000100018C
:1008F000C96F800E00010001C86FFF0E00010001EA
:10090000CB6FE60E00010001CA6F020E000100016C
:10091000CD6F800E00010001CC6FFF0E00010001C1
:10092000CF6F7F0E00010001CE6FAEECA1F0020E82
:1009300000010001C96F800E00010001C86FFF0EA9
:1009400000010001CB6FE60E00010001CA6F020E2C
:1009500000010001CD6F800E00010001CC6FFE0E82
:1009600000010001CF6FEA0E00010001CE6FAEEC76
:10097000A1F0020E00010001C96F800E000100010C
:10098000C86FFF0E00010001CB6FE60E00010001F1
:10099000CA6F020E00010001CD6F800E0001000140
:1009A000CC6F0001000E00010001CF6F0001B60EF8
:1009B00000010001CE6FAEECA1F0E0C1C2F0E1C1D8
:1009C000C3F0000E00010001C56F1C0E0001C46FD2
:1009D000E9ECA6F0050E00010001C227000E00019F
:1009E000C3235C0E00010001C225D96E080E000170
:1009F0000001C321DA6E000EDE6E000EDD6E020E07
:100A000000010001C96F800E00010001C86FFF0ED8
:100A100000010001CB6FE60E00010001CA6F020E5B
:100A200000010001CD6F800E00010001CC6FFE0EB1
:100A300000010001CF6F9A0E00010001CE6FAEECF5
:100A4000A1F0020E00010001C96F800E000100013B
:100A5000C86FFF0E00010001CB6FE60E0001000120
:100A6000CA6F020E00010001CD6F800E000100016F
:100A7000CC6FFF0E00010001CF6FEB0E00010001F3
:100A8000CE6FAEECA1F0020E00010001C96F800E26
:100A900000010001C86FFF0E00010001CB6FE60EE0
:100AA00000010001CA6F020E00010001CD6F800E2F
:100AB00000010001CC6FFF0E00010001CF6F220E7C
:100AC00000010001CE6FAEECA1F0020E00010001AA
:100AD000C96F800E00010001C86FFF0E0001000108
:100AE000CB6FE60E00010001CA6F020E000100018B
:100AF000CD6F800E00010001CC6FE0C1C2F0E1C1FA
:100B0000C3F0000E00010001C56F1C0E0001C46F90
:100B1000E9ECA6F05C0E0001DA6F080EDB6F000155
:100B20000001C2510001DA2700010001C351000198
:100B3000DB23DAC0CEF0DBC0CFF0AEECA1F0000ECC
:100B400001010101D96F000E0101D86F01010101FE
:100B5000D951800A800F050ED8B4D85DD8B02FD0F7
:100B6000E0C1C2F0E1C1C3F0000E00010001C56F99
:100B70001C0E0001C46FE9ECA6F05C0E0001DA6FF8
:100B8000080EDB6F00010001C2510001DA270001ED
:100B90000001C3510001DB2301010101D851000113
:100BA000DA25D96E01010101D9510001DB21DA6E8C
:100BB000000EDF6E01010101D84BD92BC7D701010F
:100BC0000101E04BE12B020E00010001C96F800E14
:100BD00000010001C86FFF0E00010001CB6FE60E9F
:100BE00000010001CA6F020E00010001CD6F800EEE
:100BF00000010001CC6FFF0E00010001CF6FF50E68
:100C000000010001CE6FAEECA1F001010101D04B5B
:100C1000D12BFF0E0001DA6FFF0EDB6F000188C0E1
:100C2000DCF0000189C0DDF00001DA510001DC27B1
:100C30000001DB510001DD230001DD51800A0001CC
:100C4000DE6F01010101D0510001DC5D01010101F4
:100C5000D151800A0001DE59D8B025D6000100012B
:100C600087518611D8A407D0000100018B518A1149
:100C7000D8B4B1EF8AF00001000185518411D8A4E5
:100C800006D00001000189518811D8B41AD0020E93
:100C900000010001C96F800E00010001C86FFF0E46
:100CA00000010001CB6FDA0E00010001CA6F020ED5
:100CB00000010001CD6F800E00010001CC6FAEEC91
:100CC000A1F0020E00010001C96F800E00010001B9
:100CD000C86FFF0E00010001CB6FE60E000100019E
:100CE000CA6F020E00010001CD6F800E00010001ED
:100CF000CC6FFE0E00010001CF6FBA0E00010001A3
:100D0000CE6FAEECA1F0020E00010001C96F800EA3
:100D100000010001C86FFF0E00010001CB6FE60E5D
:100D200000010001CA6F020E00010001CD6F800EAC
:100D300000010001CC6FFF0E00010001CF6FD30E48
:100D400000010001CE6FAEECA1F0020E0001000127
:100D5000C96F800E00010001C86FFF0E0001000185
:100D6000CB6FE60E00010001CA6F020E0001000108
:100D7000CD6F800E00010001CC6FFF0E000100015D
:100D8000CF6F6A0E00010001CE6FAEECA1F0000E35
:100D900001010101D36F000E0101D26FC9D1F7EC3F
:100DA000A7F0020E00010001C96F800E00010001D2
:100DB000C86FFF0E00010001CB6FE60E00010001BD
:100DC000CA6F020E00010001CD6F800E000100010C
:100DD000CC6FFF0E00010001CF6FAF0E00010001CC
:100DE000CE6FAEECA1F0020E00010001C96F800EC3
:100DF00000010001C86FFF0E00010001CB6FE60E7D
:100E000000010001CA6F020E00010001CD6F800ECB
:100E100000010001CC6FFF0E00010001CF6F890EB1
:100E200000010001CE6FAEECA1F0020E0001000146
:100E3000C96F800E00010001C86FFF0E00010001A4
:100E4000CB6FE60E00010001CA6F020E0001000127
:100E5000CD6F800E00010001CC6FFE0E000100017D
:100E6000CF6FEA0E00010001CE6FAEECA1F0020ED2
:100E700000010001C96F800E00010001C86FFF0E64
:100E800000010001CB6FE60E00010001CA6F020EE7
:100E900000010001CD6F800E00010001CC6F000148
:100EA000000E00010001CF6F0001B60E000100012D
:100EB000CE6FAEECA1F0E2C1C2F0E3C1C3F0000E10
:100EC00000010001C56F1C0E0001C46FE9ECA6F023
:100ED000130E00010001C227000E0001C3235C0EA7
:100EE00000010001C225D96E080E00010001C321D6
:100EF000DA6E000EDE6E000EDD6E020E00010001E5
:100F0000C96F800E00010001C86FFF0E00010001D3
:100F1000CB6FE60E00010001CA6F020E0001000156
:100F2000CD6F800E00010001CC6FFE0E00010001AC
:100F3000CF6F9A0E00010001CE6FAEECA1F0020E51
:100F400000010001C96F800E00010001C86FFF0E93
:100F500000010001CB6FE60E00010001CA6F020E16
:100F600000010001CD6F800E00010001CC6FFF0E6B
:100F700000010001CF6FEB0E00010001CE6FAEEC5F
:100F8000A1F0020E00010001C96F800E00010001F6
:100F9000C86FFF0E00010001CB6FE60E00010001DB
:100FA000CA6F020E00010001CD6F800E000100012A
:100FB000CC6FFF0E00010001CF6F220E0001000177
:100FC000CE6FAEECA1F0020E00010001C96F800EE1
:100FD00000010001C86FFF0E00010001CB6FE60E9B
:100FE00000010001CA6F020E00010001CD6F800EEA
:100FF00000010001CC6FE2C1C2F0E3C1C3F0000EFA
:1010000000010001C56F1C0E0001C46FE9ECA6F0E1
:101010000E0E00010001C227000E0001C3235C0E6A
:101020000001DA6F080EDB6F00010001C251000100
:10103000DA2700010001C3510001DB23DAC0CEF042
:10104000DBC0CFF0AEECA1F0000E01010101DB6FBF
:10105000000E0101DA6F01010101DB51800A800FEE
:10106000060ED8B4DA5DD8B039D0E2C1C2F0E3C11F
:10107000C3F0000E00010001C56F1C0E0001C46F1B
:10108000E9ECA6F00E0E01010101DA250001DA6F8C
:10109000000E01010101DB210001DB6F5C0E00018C
:1010A000DC6F080EDD6F0001DA510001DC27000162
:1010B000DB510001DD2300010001C2510001DC25EC
:1010C000D96E00010001C3510001DD21DA6E000E6E
:1010D000DF6E01010101DA4BDB2BBDD701010101FC
:1010E000E24BE32B020E00010001C96F800E0001EC
:1010F0000001C86FFF0E00010001CB6FE60E00017A
:101100000001CA6F020E00010001CD6F800E0001C8
:101110000001CC6FFF0E00010001CF6FF50E000142
:101120000001CE6FAEECA1F001010101D24BD32B37
:10113000FF0E0001DA6FFF0EDB6F000186C0DCF0EE
:10114000000187C0DDF00001DA510001DC27000159
:10115000DB510001DD230001DD51800A0001DE6F5B
:1011600001010101D2510001DC5D01010101D351F6
:10117000800A0001DE59D8B012D6000E010101012B
:10118000D56F000E0101D46FC7D1020E000100011E
:10119000C96F800E00010001C86FFF0E0001000141
:1011A000CB6FE60E00010001CA6F020E00010001C4
:1011B000CD6F800E00010001CC6FFF0E0001000119
:1011C000CF6FAF0E00010001CE6FAEECA1F0020EAA
:1011D00000010001C96F800E00010001C86FFF0E01
:1011E00000010001CB6FE60E00010001CA6F020E84
:1011F00000010001CD6F800E00010001CC6FFF0ED9
:1012000000010001CF6F930E00010001CE6FAEEC24
:10121000A1F0020E00010001C96F800E0001000163
:10122000C86FFF0E00010001CB6FE60E0001000148
:10123000CA6F020E00010001CD6F800E0001000197
:10124000CC6FFE0E00010001CF6FEA0E000100011D
:10125000CE6FAEECA1F0020E00010001C96F800E4E
:1012600000010001C86FFF0E00010001CB6FE60E08
:1012700000010001CA6F020E00010001CD6F800E57
:1012800000010001CC6F0001000E00010001CF6FD2
:101290000001B60E00010001CE6FAEECA1F0E4C17A
:1012A000C2F0E5C1C3F0000E00010001C56F1C0EC5
:1012B0000001C46FE9ECA6F01A0E00010001C2277C
:1012C000000E0001C3235C0E00010001C225D96E8F
:1012D000080E00010001C321DA6E000EDE6E000E62
:1012E000DD6E020E00010001C96F800E00010001D9
:1012F000C86FFF0E00010001CB6FE60E0001000178
:10130000CA6F020E00010001CD6F800E00010001C6
:10131000CC6FFE0E00010001CF6F9A0E000100019C
:10132000CE6FAEECA1F0020E00010001C96F800E7D
:1013300000010001C86FFF0E00010001CB6FE60E37
:1013400000010001CA6F020E00010001CD6F800E86
:1013500000010001CC6FFF0E00010001CF6FEB0E0A
:1013600000010001CE6FAEECA1F0020E0001000101
:10137000C96F800E00010001C86FFF0E000100015F
:10138000CB6FE60E00010001CA6F020E00010001E2
:10139000CD6F800E00010001CC6FFF0E0001000137
:1013A000CF6F220E00010001CE6FAEECA1F0020E55
:1013B00000010001C96F800E00010001C86FFF0E1F
:1013C00000010001CB6FE60E00010001CA6F020EA2
:1013D00000010001CD6F800E00010001CC6FE4C15F
:1013E000C2F0E5C1C3F0000E00010001C56F1C0E84
:1013F0000001C46FE9ECA6F0150E00010001C22740
:10140000000E0001C3235C0E0001DA6F080EDB6FD3
:1014100000010001C2510001DA2700010001C3519F
:101420000001DB23DAC0CEF0DBC0CFF0AEECA1F0E0
:10143000000E01010101DD6F000E0101DC6F0101F1
:101440000101DD51800A800F050ED8B4DC5DD8B0F3
:1014500039D0E4C1C2F0E5C1C3F0000E00010001C3
:10146000C56F1C0E0001C46FE9ECA6F0150E01015A
:101470000101DC250001DA6F000E01010101DD210F
:101480000001DB6F5C0E0001DC6F080EDD6F0001F8
:10149000DA510001DC270001DB510001DD230001EE
:1014A0000001C2510001DC25D96E00010001C351C9
:1014B0000001DD21DA6E000EDF6E01010101DC4B5F
:1014C000DD2BBDD701010101E44BE52B020E00012C
:1014D0000001C96F800E00010001C86FFF0E0001FE
:1014E0000001CB6FE60E00010001CA6F020E000181
:1014F0000001CD6F800E00010001CC6FFF0E0001D6
:101500000001CF6FF50E00010001CE6FAEECA1F02F
:1015100001010101D44BD52BFF0E0001DA6FFF0E44
:10152000DB6F00018AC0DCF000018BC0DDF0000140
:10153000DA510001DC270001DB510001DD2300014D
:10154000DD51800A0001DE6F01010101D45100016B
:10155000DC5D01010101D551800A0001DE59D8B0DE
:1015600014D6020E00010001C96F800E00010001B7
:10157000C86FFF0E00010001CB6FF00E00010001EB
:10158000CA6F020E00010001CD6F800E0001000144
:10159000CC6FAEECA1F0020E00010001C96F800E0D
:1015A00000010001C86FFF0E00010001CB6FE60EC5
:1015B00000010001CA6F020E00010001CD6F800E14
:1015C00000010001CC6FFE0E00010001CF6F600E24
:1015D00000010001CE6FAEECA1F0000E0001000191
:1015E000856F000E0001846F000E01010101C76FBD
:1015F000000E0101C66F000E01010101DF6F000E38
:101600000101DE6F000E00010001896F000E000174
:10161000886F000E01010101C96F000E0101C86F42
:10162000000E01010101E16F000E0101E06F000EEB
:1016300000010001876F000E0001866F000E01019E
:101640000101CB6F000E0101CA6F000E0101010103
:10165000E36F000E0101E26F000E000100018B6FCD
:10166000000E00018A6F000E01010101CD6F000E16
:101670000101CC6F000E01010101E56F000E0101B7
:10168000E46F12000001CE6F000E00010001DB6F5D
:101690000001CE510001CE6F000E00010001DE6F8F
:1016A0000001CE51000100017B51241804E100012A
:1016B00000017A512318D8B43CD1000100017A4BC3
:1016C0007B2B000100017B51800A800F800ED8B473
:1016D0007A5DD8A007D0000E000100017B6F000EDC
:1016E00000017A6F0101000E000100017A25D96E18
:1016F0000101010E000100017B21DA6EDF500001C3
:101700000001DB6F0CD10001CE6F010E366E0001BF
:10171000CE5112003650D8B412000001CE6F000E28
:10172000366E0001CE510001CE6F010E376E000102
:10173000CE51000E2E6E000E2D6E12003704D8A46E
:1017400016D0000E000100017F6F000E00017E6FB9
:1017500000010001DB5100010001816F0001806B7D
:101760000001CE6F020E376E0001CE5112003750CD
:10177000020AD8A410D000010001DB5100010001D1
:101780008027000E000181230001CE6F030E376E0B
:101790000001CE5112003750030AD8A416D0000120
:1017A000DBC029F02A6A00010001DBC07EF00001E5
:1017B00000017F6B000E2E6E000E2D6E0001CE6FAD
:1017C000040E376E0001CE5112003750040AD8A41F
:1017D00053D0FF0E0001CE6FFF0ECF6F000180C00F
:1017E000D0F0000181C0D1F00001CE510001D0271E
:1017F0000001CF510001D1230001D151800A000125
:10180000D26F2D500001D05D2E50800A0001D259B8
:10181000D8A015D001019E0E2D24D96E0101010E14
:101820002E20DA6E0001DBC0DFFF00010001DB517A
:10183000000100017E27000E00017F231AD0010164
:101840009E0E2D24D96E0101010E2E20DA6E0001AC
:10185000DBC0DFFF00010001DB51000100017E273A
:10186000000E00017F230001CE6F050E376E0001D0
:10187000CE512D4A2E2A12003750050AD8A40FD077
:1018800000010001DB5100010001796F0001786B5C
:101890000001CE6F060E376E0001CE511200375098
:1018A000060AD8A4120000010001DB51000100016A
:1018B0007827000E000179230001CE6F000E376EED
:1018C0000001CE51000100017951000100017F1992
:1018D00006E1000100017851000100017E19D8A441
:1018E00009D00001CE6F010E00010001986F0001C8
:1018F000CE5112000001CE6F000E010101019E6F5A
:101900000001CE51000E2A6E000E296E0001CE6F2E
:10191000000E00010001986F0001CE51120000017D
:101920000001DB51730AD8B4EED60C0AD8B4F2D653
:1019300005D7000100017D51261804E100010001D6
:101940007C512518D8B41200000100017C4B7D2B7E
:10195000000100017D51800A800F800ED8B47C5DAB
:10196000D8A007D0000E000100017D6F000E00011D
:101970007C6F0201000E000100017C25D96E02017E
:10198000020E000100017D21DA6EDF50000100012E
:10199000DE6FADA2FED700010001DE51D9ECA7F049
:1019A0003C50D8B45ED000010001DE512B0AD8A40F
:1019B0000AD00001CE6F010E3F6E0001CE51000E25
:1019C000226E000E216E3F50D8B417D00101800E58
:1019D0002124D96E0101010E2220DA6E0001DEC041
:1019E000DFFF214A222A0101800E2124D96E010144
:1019F000010E2220DA6E000EDF6E00010001DE51C2
:101A0000220AD8A404D000010001904B912B0001C0
:101A100000019151800A800F020ED8B4905DD8A0C9
:101A200012000001CE6F000E3C6E0001CE5100018D
:101A3000CE6F000E3F6E0001CE510001CE6F010E41
:101A400000010001F16F0001CE51000E226E000E68
:101A5000216E000E00010001916F000E0001906FD9
:101A6000120000010001DE514B0AD8A41AD03550F3
:101A7000D8B417D00001CE6F000E00010001DE6F58
:101A80000001CE510001CE6F010E00010001F06F88
:101A90000001CE510001CE6F000E356E0001CE5117
:101AA000120000010001DE514F0AD8A40FD000013E
:101AB000CE6F000E00010001DE6F0001CE5100016B
:101AC000CE6F010E356E0001CE51120000010001F3
:101AD000DE51410AD8A418D03550D8B415D0000131
:101AE000CE6F000E00010001DE6F0001CE5100013B
:101AF000CE6F010E346E0001CE510001CE6F000E8C
:101B0000356E0001CE51120000010001DE51440A81
:101B1000D8A420D03450D8B41DD00001CE6F000E10
:101B200000010001DE6F0001CE510001CE6F010EF9
:101B300000010001F06F0001CE510001CE6F000ED8
:101B4000356E0001CE510001CE6F000E346E0001E3
:101B5000CE51120000010001DE51650AD8A40FD059
:101B60000001CE6F000E00010001DE6F0001CE51BA
:101B70000001CE6F010E3B6E0001CE51120000013C
:101B80000001DE51610AD8A418D03B50D8B415D05A
:101B90000001CE6F000E00010001DE6F0001CE518A
:101BA0000001CE6F010E396E0001CE510001CE6FE3
:101BB000000E3B6E0001CE51120000010001DE510B
:101BC000640AD8A41ED03950D8B41BD00001CE6FFF
:101BD000000E00010001DE6F0001CE510001CE6F4A
:101BE000010E3A6E0001CE510001CE6F000E3B6E29
:101BF0000001CE510001CE6F000E396E0001CE51B2
:101C0000120000010001DE51790AD8A424D03A5014
:101C1000D8B421D00001CE6F000E00010001DE6FAC
:101C20000001CE510001CE6F010E386E0001CE5181
:101C30000001CE6F000E3B6E0001CE510001CE6F51
:101C4000000E396E0001CE510001CE6F000E3A6ECB
:101C50000001CE51120000010001DE51450AD8A456
:101C60000FD00001CE6F000E00010001DE6F0001F9
:101C7000CE510001CE6F010E316E0001CE51120027
:101C800000010001DE51520AD8A415D3316605D0F7
:101C9000326603D03350D8B40ED30001CE6F000E9D
:101CA00000010001DE6F0001CE510001CE6F010E78
:101CB000336E0001CE510001CE6F000E316E000177
:101CC000CE513250D8B41200000100018351800A75
:101CD000800F010ED8B4825DD8A01200000E000162
:101CE0000001836F0A0E0001826F000E00010001E7
:101CF000856F000E0001846F000E00010001896FE6
:101D0000000E0001886F000E00010001876F000EB9
:101D10000001866F000E000100018B6F000E0001B4
:101D20008A6F000E00010001DD6F000E0001DC6F04
:101D300000010001DD51800A800F330ED8B4DC5D54
:101D4000D8B094D2000E00010001D46F000E000143
:101D5000D36F38D0DCC0C2F0DDC0C3F0000E00018C
:101D60000001C56F1C0E0001C46FE9ECA6F0070E60
:101D700000010001D3250001CE6F000E000100011B
:101D8000D4210001CF6F5C0E0001D06F080ED16F1F
:101D90000001CE510001D0270001CF510001D12315
:101DA00000010001C2510001D025D96E00010001DF
:101DB000C3510001D121DA6E000EDF6E0001000177
:101DC000D34BD42BFF0E0001CE6FFF0ECF6FDCC0C4
:101DD000C2F0DDC0C3F0000E00010001C56F1C0E93
:101DE0000001C46FE9ECA6F0070E00010001C22754
:101DF000000E0001C3235C0E0001D06F080ED16FEE
:101E000000010001C2510001D02700010001C351AF
:101E10000001D123D0C0C8F0D1C0C9F0FFECA5F0BB
:101E20000001CE5100010001C8270001CF5100017F
:101E30000001C92300010001D35100010001C85D68
:101E400000010001D45100010001C959D8B082D766
:101E5000DCC0C2F0DDC0C3F0000E00010001C56FA0
:101E60001C0E0001C46FE9ECA6F00C0E000100018D
:101E7000C227000E0001C3235C0E00010001C22531
:101E8000D96E080E00010001C321DA6E000EDE6E6D
:101E9000000EDD6E000E00010001D66F000E000185
:101EA000D56F2ED0DCC0C2F0DDC0C3F0000E000143
:101EB0000001C56F1C0E0001C46FE9ECA6F05C0EBA
:101EC0000001CE6F080ECF6F00010001C25100016A
:101ED000CE2700010001C3510001CF230001000102
:101EE000D5510001CE25D96E00010001D651000167
:101EF000CF21DA6E000EDF6E00010001D54BD62B2C
:101F0000FF0E0001CE6FFF0ECF6FDCC0C2F0DDC050
:101F1000C3F0000E00010001C56F1C0E0001C46F6C
:101F2000E9ECA6F05C0E0001D06F080ED16F000145
:101F30000001C2510001D02700010001C35100017E
:101F4000D123D0C0C8F0D1C0C9F0FFECA5F000018A
:101F5000CE5100010001C8270001CF51000100014E
:101F6000C92300010001D55100010001C85D000135
:101F70000001D65100010001C959D8B093D7DCC087
:101F8000C2F0DDC0C3F0000E00010001C56F1C0EE1
:101F90000001C46FE9ECA6F0050E00010001C227A4
:101FA000000E0001C3235C0E00010001C225D96EA2
:101FB000080E00010001C321DA6E000EDE6E000E75
:101FC000DD6E000E00010001D86F000E0001D76F1A
:101FD00038D0DCC0C2F0DDC0C3F0000E000100014B
:101FE000C56F1C0E0001C46FE9ECA6F00E0E0001D7
:101FF0000001D7250001CE6F000E00010001D8219D
:102000000001CF6F5C0E0001D06F080ED16F000190
:10201000CE510001D0270001CF510001D123000192
:102020000001C2510001D025D96E00010001C35149
:102030000001D121DA6E000EDF6E00010001D74BE6
:10204000D82BFF0E0001CE6FFF0ECF6FDCC0C2F0A9
:10205000DDC0C3F0000E00010001C56F1C0E0001C1
:10206000C46FE9ECA6F00E0E00010001C227000EBD
:102070000001C3235C0E0001D06F080ED16F000178
:102080000001C2510001D02700010001C35100012D
:10209000D123D0C0C8F0D1C0C9F0FFECA5F0000139
:1020A000CE5100010001C8270001CF5100010001FD
:1020B000C92300010001D75100010001C85D0001E2
:1020C0000001D85100010001C959D8B082D7DCC045
:1020D000C2F0DDC0C3F0000E00010001C56F1C0E90
:1020E0000001C46FE9ECA6F0130E00010001C22745
:1020F000000E0001C3235C0E00010001C225D96E51
:10210000080E00010001C321DA6E000EDE6E000E23
:10211000DD6E000E00010001DA6F000E0001D96FC4
:1021200038D0DCC0C2F0DDC0C3F0000E00010001F9
:10213000C56F1C0E0001C46FE9ECA6F0150E00017E
:102140000001D9250001CE6F000E00010001DA2147
:102150000001CF6F5C0E0001D06F080ED16F00013F
:10216000CE510001D0270001CF510001D123000141
:102170000001C2510001D025D96E00010001C351F8
:102180000001D121DA6E000EDF6E00010001D94B93
:10219000DA2BFF0E0001CE6FFF0ECF6FDCC0C2F056
:1021A000DDC0C3F0000E00010001C56F1C0E000170
:1021B000C46FE9ECA6F0150E00010001C227000E65
:1021C0000001C3235C0E0001D06F080ED16F000127
:1021D0000001C2510001D02700010001C3510001DC
:1021E000D123D0C0C8F0D1C0C9F0FFECA5F00001E8
:1021F000CE5100010001C8270001CF5100010001AC
:10220000C92300010001D95100010001C85D00018E
:102210000001DA5100010001C959D8B082D7DCC0F1
:10222000C2F0DDC0C3F0000E00010001C56F1C0E3E
:102230000001C46FE9ECA6F01A0E00010001C227EC
:10224000000E0001C3235C0E00010001C225D96EFF
:10225000080E00010001C321DA6E000EDE6E000ED2
:10226000DD6E00010001DC4BDD2B62D5000E0001AC
:102270000001856F000E0001846F000E0001000157
:10228000896F000E0001886F000E00010001876F4A
:10229000000E0001866F000E000100018B6F000E22
:1022A00000018A6F0001CE6F000E00010001976FE0
:1022B0000001CE51120000010001DE51300AD8A405
:1022C0001ED03350D8B41BD00001CE6F000E0001D9
:1022D0000001DE6F0001CE510001CE6F010E326EA3
:1022E0000001CE510001CE6F000E316E0001CE51C3
:1022F0000001CE6F000E336E0001CE5112000001BE
:10230000CE6F000E356E0001CE510001CE6F000E73
:10231000346E0001CE510001CE6F000E3B6E000105
:10232000CE510001CE6F000E396E0001CE5100017A
:10233000CE6F000E3A6E0001CE511200000E000169
:102340000001D46F000E0001D36F000E00010001E8
:10235000D66F000E0001D56F2950100A2A10D8A49C
:1023600018D1000E00010001D46F000E0001D36FE0
:10237000000E00010001D66F000E0001D56F000EA7
:1023800000010001D46F000E0001D36F54D0010191
:102390009E0E00010001D525D96E0101010E00013C
:1023A0000001D621DA6E88C0C2F089C0C3F0000EE9
:1023B00000010001C56F1C0E0001C46FE9ECA6F01E
:1023C0005C0E0001CE6F080ECF6F00010001C251FC
:1023D0000001CE2700010001C3510001CF230001FD
:1023E0000001D5510001CE25E16E00010001D6515A
:1023F0000001CF21E26EDFCFE7FF00010001D54BE6
:10240000D62B01019E0E00010001D525D96E0101D8
:10241000010E00010001D621DA6E3B0EDF6207D00B
:10242000000E00010001D46F1E0E0001D36F0001E9
:102430000001D34BD42BFF0E0001CE6FFF0ECF6FE8
:102440000101010E00010001C96F01019E0E000192
:102450000001C86FFFECA5F00001CE5100010001A2
:10246000C8270001CF5100010001C923000100016C
:10247000D35100010001C85D00010001D4510001E9
:102480000001C959D8B083D7010E00010001D5253C
:102490000001CE6F000E00010001D6210001CF6FB8
:1024A00001019E0E0001CE25D96E0101010E000131
:1024B000CF21DA6EDF500001D06F0001D051000152
:1024C000D26FD16B88C0C2F089C0C3F0000E00018A
:1024D0000001C56F1C0E0001C46FE9ECA6F0050EEB
:1024E00000010001C227000E0001C3235C0E0001A1
:1024F0000001C225D96E080E00010001C321DA6E69
:10250000D1C0DEFFD2C0DDFF88C0C2F089C0C3F0F9
:10251000000E00010001C56F1C0E0001C46FE9EC44
:10252000A6F0050E00010001C227000E0001C32322
:102530005C0E00010001C225D96E080E00010001E9
:10254000C321DA6E020E00010001D5250001CE6F15
:10255000000E00010001D6210001CF6F01019E0E87
:102560000001CE25E16E0101010E0001CF21E26ED6
:10257000E7500001D06F0001D051DE26000EDD22B1
:1025800000010001884B892B000E2A6E000E296E77
:1025900012002950110A2A10D8A422D1000E0001DD
:1025A0000001D46F000E0001D36F000E0001000186
:1025B000D66F000E0001D56F000E00010001D46F30
:1025C000000E0001D36F5ED001019E0E00010001DC
:1025D000D525D96E0101010E00010001D621DA6E68
:1025E00084C0C2F085C0C3F0000E00010001C56FB9
:1025F0001C0E0001C46FE9ECA6F0070E00010001FB
:10260000D5250001CE6F000E00010001D62100018A
:10261000CF6F5C0E0001D06F080ED16F0001CE515C
:102620000001D0270001CF510001D123000100019A
:10263000C2510001D025E16E00010001C35100012B
:10264000D121E26EDFCFE7FF00010001D54BD62B91
:1026500001019E0E00010001D525D96E0101010E78
:1026600000010001D621DA6E3B0EDF6207D0000EBA
:1026700000010001D46F1E0E0001D36F00010001A4
:10268000D34BD42BFF0E0001CE6FFF0ECF6F010195
:10269000010E00010001C96F01019E0E0001000141
:1026A000C86FFFECA5F00001CE5100010001C82762
:1026B0000001CF5100010001C92300010001D351E5
:1026C00000010001C85D00010001D45100010001BA
:1026D000C959D8B079D7010E00010001D5250001F4
:1026E000CE6F000E00010001D6210001CF6F010165
:1026F0009E0E0001CE25D96E0101010E0001CF21F1
:10270000DA6EDF500001D06F0001D0510001D26FAE
:10271000D16B84C0C2F085C0C3F0000E000100017F
:10272000C56F1C0E0001C46FE9ECA6F00C0E000191
:102730000001C227000E0001C3235C0E000100014E
:10274000C225D96E080E00010001C321DA6ED1C086
:10275000DEFFD2C0DDFF84C0C2F085C0C3F0000E32
:1027600000010001C56F1C0E0001C46FE9ECA6F06A
:102770000C0E00010001C227000E0001C3235C0EF5
:1027800000010001C225D96E080E00010001C3211D
:10279000DA6E020E00010001D5250001CE6F000E99
:1027A00000010001D6210001CF6F01019E0E000142
:1027B000CE25E16E0101010E0001CF21E26EE7504E
:1027C0000001D06F0001D051DE26000EDD22000195
:1027D0000001844B852B000E2A6E000E296E12001C
:1027E0002950120A2A10D8A422D1000E000100019B
:1027F000D46F000E0001D36F000E00010001D66FF0
:10280000000E0001D56F000E00010001D46F000E14
:102810000001D36F5ED001019E0E00010001D5259D
:10282000D96E0101010E00010001D621DA6E86C0C9
:10283000C2F087C0C3F0000E00010001C56F1C0E7E
:102840000001C46FE9ECA6F00E0E00010001D525D1
:102850000001CE6F000E00010001D6210001CF6FF4
:102860005C0E0001D06F080ED16F0001CE51000147
:10287000D0270001CF510001D12300010001C25136
:102880000001D025E16E00010001C3510001D121FA
:10289000E26EDFCFE7FF00010001D54BD62B01012F
:1028A0009E0E00010001D525D96E0101010E000127
:1028B0000001D621DA6E3B0EDF6207D0000E000168
:1028C0000001D46F1E0E0001D36F00010001D34B35
:1028D000D42BFF0E0001CE6FFF0ECF6F0101010E52
:1028E00000010001C96F01019E0E00010001C86FC7
:1028F000FFECA5F00001CE5100010001C827000146
:10290000CF5100010001C92300010001D351000192
:102910000001C85D00010001D45100010001C95946
:10292000D8B079D7010E00010001D5250001CE6F86
:10293000000E00010001D6210001CF6F01019E0EA3
:102940000001CE25D96E0101010E0001CF21DA6E02
:10295000DF500001D06F0001D0510001D26FD16B68
:1029600086C0C2F087C0C3F0000E00010001C56F31
:102970001C0E0001C46FE9ECA6F0130E000100016B
:10298000C227000E0001C3235C0E00010001C22516
:10299000D96E080E00010001C321DA6ED1C0DEFF3E
:1029A000D2C0DDFF86C0C2F087C0C3F0000E0001B8
:1029B0000001C56F1C0E0001C46FE9ECA6F0130EF8
:1029C00000010001C227000E0001C3235C0E0001BC
:1029D0000001C225D96E080E00010001C321DA6E84
:1029E000020E00010001D5250001CE6F000E00018E
:1029F0000001D6210001CF6F01019E0E0001CE25FE
:102A0000E16E0101010E0001CF21E26EE7500001ED
:102A1000D06F0001D051DE26000EDD220001000142
:102A2000864B872B000E2A6E000E296E120029504D
:102A3000130A2A10D8A41AD1000E00010001D46F85
:102A4000000E0001D36F000E00010001D66F000ED2
:102A50000001D56F000E00010001D46F000E0001CF
:102A6000D36F5ED001019E0E00010001D525D96E05
:102A70000101010E00010001D621DA6E8AC0C2F008
:102A80008BC0C3F0000E00010001C56F1C0E0001D9
:102A9000C46FE9ECA6F0150E00010001D525000178
:102AA000CE6F000E00010001D6210001CF6F5C0E39
:102AB0000001D06F080ED16F0001CE510001D02768
:102AC0000001CF510001D12300010001C2510001DA
:102AD000D025E16E00010001C3510001D121E26E59
:102AE000DFCFE7FF00010001D54BD62B01019E0E81
:102AF00000010001D525D96E0101010E0001000180
:102B0000D621DA6E3B0EDF6207D0000E0001000115
:102B1000D46F1E0E0001D36F00010001D34BD42BE4
:102B20000101010E00010001C96F01019E0E0001AB
:102B30000001C86FFFECA5F0020E00010001C827DC
:102B4000000E0001C92300010001D3510001000162
:102B5000C85D00010001D45100010001C959D8B07D
:102B600081D7010E00010001D5250001CE6F000EB6
:102B700000010001D6210001CF6F01019E0E00016E
:102B8000CE25D96E0101010E0001CF21DA6EDF5092
:102B90000001D06F0001D0510001D26FD16B8AC00B
:102BA000C2F08BC0C3F0000E00010001C56F1C0E07
:102BB0000001C46FE9ECA6F01A0E00010001C22763
:102BC000000E0001C3235C0E00010001C225D96E76
:102BD000080E00010001C321DA6ED1C0DEFFD2C0B1
:102BE000DDFF8AC0C2F08BC0C3F0000E00010001FF
:102BF000C56F1C0E0001C46FE9ECA6F01A0E0001AF
:102C00000001C227000E0001C3235C0E0001000179
:102C1000C225D96E080E00010001C321DA6E020E32
:102C200000010001D5250001CE6F000E000100015A
:102C3000D6210001CF6F01019E0E0001CE25E16E6D
:102C40000101010E0001CF21E26EE7500001D06FBB
:102C50000001D051DE26000EDD22000100018A4B6A
:102C60008B2B000E2A6E000E296E12002950210AAD
:102C70002A10D8A412009ED04050D8B40AD0828620
:102C8000ADA2FED7310ED9ECA7F00001CE6F000E39
:102C900009D08296ADA2FED7300ED9ECA7F0000184
:102CA000CE6F010E406E83D00001CE6F010E000189
:102CB0000001966F7CD00001CE6F010E0001000173
:102CC000956F0001CE510001CE6F000E0001000192
:102CD000F06F0001CE510001CE6F000E0001000127
:102CE000936F0001CE510001CE6F000E0001000174
:102CF000926F0001CE510001CE6F000E0001000165
:102D0000946F0001CE510001CE6F000E0001000152
:102D10009A6F4DD00001CE6F010E00010001996F36
:102D200046D00001CE6F010E000100019A6F000134
:102D3000CE510001CE6F000E00010001956F000121
:102D4000CE510001CE6F000E00010001F06F0001B6
:102D5000CE510001CE6F000E00010001936F000103
:102D6000CE510001CE6F000E00010001926F0001F4
:102D7000CE510001CE6F000E00010001946F0001E2
:102D8000CE51000E2C6E140E2B6E000E00010001B1
:102D9000836F000E0001826F0001CE6F000E386E4F
:102DA00006D00001CE6F010E00010001976F0001F7
:102DB000CE5115D0010101019E51670AD8B47BD7CD
:102DC000080AD8B471D71F0AD8B456D7010AD8B4A4
:102DD000E8D7040AD8B49ED70C0AD8B4A2D7000EFC
:102DE0002A6E000E296E1200000100018251090AAC
:102DF0008311D8A41FD0F7ECA7F00001DF6F010EFC
:102E00003C6E0001DF51FF0E00010001CF6F9D0EEF
:102E100000010001CE6F40ECA4F0F7ECA7F0000E2B
:102E200000010001836F0A0E0001826F000E286E00
:102E30000A0E276E0001000182510A0A8311D8A4EC
:102E4000CAD02850800A800F0E0ED8B4275CD8A0B4
:102E5000C2D0F7ECA7F00001DF6F320E00010001D5
:102E60009B6F0001DF510001DF6F300E0001000198
:102E70009C6F0001DF5188C19DF089C19EF0000167
:102E8000DF6F2D0E000100019F6F0001DF518BC12C
:102E9000A0F08CC1A1F00001DF6F2D0E0001000138
:102EA000A26F0001DF518EC1A3F08FC1A4F0000119
:102EB000DF6F200E00010001A56F0001DF5191C1FD
:102EC000A6F091C1B6F092C1A7F092C1B7F000018F
:102ED000DF6F3A0E00010001A86F0001DF51000111
:102EE000DF6F3A0E00010001B86F0001DF5194C19D
:102EF000A9F094C1B9F095C1AAF095C1BAF000014A
:102F0000DF6F3A0E00010001AB6F0001DF510001DD
:102F1000DF6F3A0E00010001BB6F0001DF5197C166
:102F2000ACF097C1BCF098C1ADF098C1BDF0000104
:102F3000DF6F000E00010001AE6F0001DF510001E4
:102F4000DF6F000E00010001BE6F0001DF51000EB7
:102F500000010001916F000E0001906F0001DF6F12
:102F6000000E00010001F16F0001DF510001DF6F71
:102F7000680E00010001C06F0001DF510001000E6A
:102F800000010001C56F0001C00E00010001C46F07
:102F9000FF0E00010001C76FFF0E0001C66F000E9B
:102FA00000010001C96F210E0001C86FA9EC9FF05C
:102FB000000E00010001836F0B0E0001826F000EF6
:102FC000286E0A0E276E0001DF6F000E000100015F
:102FD000F16F0001DF510001000182510B0A8311E2
:102FE000D8A437D02850800A800F0E0ED8B4275CA2
:102FF000D8A02FD0F7ECA7F00001DF6F6B0E000117
:103000000001C06F0001DF510001000E000100014E
:10301000C56F0001C00E00010001C46FFF0E00016A
:103020000001C76FFF0E0001C66F000E0001000116
:10303000C96F210E0001C86FA9EC9FF0000E0001BE
:103040000001836F0C0E0001826F000E286E0A0EC5
:10305000276E0001000182510C0A8311D8A437D0D9
:103060002850800A800F0E0ED8B4275CD8A02FD02D
:10307000F7ECA7F00001DF6F6C0E00010001C06FDC
:103080000001DF510001000E00010001C56F0001C9
:10309000C00E00010001C46FFF0E00010001C76FE8
:1030A000FF0E0001C66F000E00010001C96F210E66
:1030B0000001C86FA9EC9FF0000E00010001836FB2
:1030C000010E0001826F000E286E0A0E276E0001AD
:1030D000000182058311D8A4B0D02850800A800F47
:1030E0000E0ED8B4275CD8A0A8D0000E286E000E13
:1030F000276E0001DF6F000E00010001F06F00017C
:10310000DF51000E00010001836F020E0001826F8B
:1031100074C0E0F075C0E1F076C0E2F077C0E3F093
:1031200000EC80F0000E00010001E56F000E0001D0
:10313000E46F020E00010001C96F800E0001000162
:10314000C86FFFECA5F00001C8C0E4F00001C9C0E1
:10315000E5F00001FE0E0001E427FF0E0001E5236B
:103160000001000E00010001D46F0001E00E00011B
:103170000001D36FE4C0D5F0E5C0D6F0000E000129
:103180000001D86F0A0E0001D76FB1ECA6F0000164
:10319000DF6F000E00010001936F0001DF51FF0E91
:1031A00000010001CF6F150E00010001CE6F40EC51
:1031B000A4F0010E00010001CB6FF40E0001CA6FF4
:1031C0001AECA7F00001000E00010001CF6F000112
:1031D000E00E00010001CE6F40ECA4F0010E0001F2
:1031E0000001CB6FF40E0001CA6F1AECA7F02C0E91
:1031F000E3ECA7F0000E00010001CB6F320E0001DE
:10320000CA6F1AECA7F0FF0E00010001CF6FE00EAD
:1032100000010001CE6F40ECA4F0010E000100019E
:10322000CB6FF40E0001CA6F1AECA7F0F7ECA7F011
:10323000000E286E0A0E276E120000010001825156
:10324000020A8311D8A42BD000010001F051D8B498
:1032500026D02850800A800F0B0ED8B4275CD8A047
:103260001ED00001DF6F000E00010001F06F0001B1
:10327000DF51000E00010001836F030E0001826F19
:10328000020E00010001CF6F800E00010001CE6F21
:1032900040ECA4F0000E286E0A0E276E120000010A
:1032A00000018251030A8311D8A412000001000119
:1032B000F051D8B412002850800A800F0B0ED8B4F9
:1032C000275CD8A01200000E286E000E276E0001A9
:1032D000DF6F000E00010001F06F0001DF51000EF2
:1032E00000010001836F000E0001826F0001DF6F9B
:1032F000000E00010001966F0001DF510001DF6F39
:10330000000E00010001946F0001DF51FE0E00016C
:103310000001CF6FDA0E00010001CE6F40ECA4F087
:10332000010E00010001CB6FF40E0001CA6F1AEC10
:10333000A7F0F7ECA7F0000E00010001E96F000E06
:103340000001E86F00010001E951800AF36E800E70
:10335000F35C1A0ED8B4E85DD8A021D00101800E2C
:1033600000010001E825D96E0101010E00010001F4
:10337000E921DA6E000EDF6E00019B0E00010001F4
:10338000E825D96E0001000E00010001E921DA6E86
:10339000000EDF6E00010001E84BE92BD3D7000ED1
:1033A00000010001E76F000E0001E66F000100015F
:1033B000E751800A7B0FDC0ED8B4E65DD8B012006E
:1033C000800E00010001E625D96E020E0001000109
:1033D000E721DA6E000EDF6E00010001E64BE72BFD
:1033E000E5D72B50140A2C10D8A42FD00001D46F8D
:1033F000000E386E0001D4510001D46F000E0001A0
:103400000001F06F0001D451000E2C6E020E2B6EE5
:10341000FF0E00010001CF6F2E0E00010001CE6FE4
:1034200040ECA4F0010E00010001CB6FF40E00018E
:10343000CA6F1AECA7F0F7ECA7F0000E2C6E0A0E7C
:103440002B6E000E286E0A0E276E2B500A0A2C10C7
:10345000D8A41CD02850800A800F0E0ED8B4275C48
:10346000D8A014D00001D46F000E386E0001D451E2
:103470008296ADA2FED7300ED9ECA7F0000E2C6ECE
:103480000D0E2B6E000E286E0F0E276E2B500A0AA3
:103490002C10D8A41AD000010001F051D8B415D0D6
:1034A0000001D46F000E386E0001D4518296ADA297
:1034B000FED7300ED9ECA7F0000E2C6E0B0E2B6E43
:1034C000000E286E0A0E276E12002B500B0A2C10CD
:1034D000D8A417D02850800A800F0B0ED8B4275CD0
:1034E000D8A00FD08286ADA2FED7310ED9ECA7F0BE
:1034F000000E2C6E0C0E2B6E000E286E0A0E276E20
:1035000012002B500C0A2C10D8A417D02850800A77
:10351000800F0C0ED8B4275CD8A00FD08296ADA235
:10352000FED7300ED9ECA7F0000E2C6E0D0E2B6ED0
:10353000000E286E0A0E276E12002B500D0A2C105A
:10354000D8A417D02850800A800F130ED8B4275C57
:10355000D8A00FD08286ADA2FED7310ED9ECA7F04D
:10356000000E2C6E0E0E2B6E000E286E0A0E276EAD
:1035700012002B500E0A2C10D8A417D02850800A05
:10358000800F0C0ED8B4275CD8A00FD08296ADA2C5
:10359000FED7300ED9ECA7F0000E2C6E010E2B6E6C
:1035A000000E286E0A0E276E12002B042C10D8A4D1
:1035B00037D03850D8B434D02850800A800F0C0E41
:1035C000D8B4275CD8A02CD00001D46F000E386E80
:1035D0000001D4510001D46F000E00010001F06F12
:1035E0000001D451000E2C6E020E2B6EFF0E000156
:1035F0000001CF6F2E0E00010001CE6F40ECA4F051
:10360000010E00010001CB6FF40E0001CA6F1AEC2D
:10361000A7F0F7ECA7F0000E286E0A0E276E120036
:103620002B50020A2C10D8A433D000010001F05115
:10363000D8B42ED02850800A800F0B0ED8B4275C47
:10364000D8A026D00001D46F000E00010001F06F59
:103650000001D451000E2C6E030E2B6EFD0E0001E6
:103660000001CF6FF80E00010001CE6F40ECA4F016
:10367000010E00010001CB6FF40E0001CA6F1AECBD
:10368000A7F0F7ECA7F0000E286E0A0E276E1200C6
:103690002B50030A2C10D8A433D000010001F051A4
:1036A000D8B42ED02850800A800F0B0ED8B4275CD7
:1036B000D8A026D00001D46F000E00010001F06FE9
:1036C0000001D451000E2C6E040E2B6EFE0E000174
:1036D0000001CF6F140E00010001CE6F40ECA4F08A
:1036E000010E00010001CB6FF40E0001CA6F1AEC4D
:1036F000A7F0F7ECA7F0000E286E0A0E276E120056
:103700002B50040A2C10D8A433D000010001F05132
:10371000D8B42ED02850800A800F0B0ED8B4275C66
:10372000D8A026D00001D46F000E00010001F06F78
:103730000001D451000E2C6E050E2B6EFE0E000102
:103740000001CF6F2E0E00010001CE6F40ECA4F0FF
:10375000010E00010001CB6FF40E0001CA6F1AECDC
:10376000A7F0F7ECA7F0000E286E0A0E276E1200E5
:103770002B50050A2C10D8A433D000010001F051C1
:10378000D8B42ED02850800A800F0D0ED8B4275CF4
:10379000D8A026D00001D46F000E00010001F06F08
:1037A0000001D451000E2C6E060E2B6EFF0E000190
:1037B0000001CF6F080E00010001CE6F40ECA4F0B5
:1037C000010E00010001CB6FF40E0001CA6F1AEC6C
:1037D000A7F0F7ECA7F0000E286E0A0E276E120075
:1037E0002B50060A2C10D8A42AD000010001F05159
:1037F000D8B425D02850800A800F0B0ED8B4275C8F
:10380000D8A01DD00001D46F000E00010001F06FA0
:103810000001D451000E2C6E070E2B6EFF0E00011E
:103820000001CF6F520E00010001CE6F40ECA4F0FA
:10383000F7ECA7F0000E286E0A0E276E12002B5030
:10384000070A2C10D8A42AD000010001F051D8B4E6
:1038500025D02850800A800F0B0ED8B4275CD8A042
:103860001DD00001D46F000E00010001F06F0001B7
:10387000D451000E2C6E080E2B6EFE0E00010001BE
:10388000CF6F760E00010001CE6F40ECA4F0F7EC94
:10389000A7F0000E286E0A0E276E12002B50080AA1
:1038A0002C10D8A433D000010001F051D8B42ED090
:1038B0002850800A800F0B0ED8B4275CD8A026D0E1
:1038C0000001D46F000E00010001F06F0001D4511F
:1038D000000E2C6E090E2B6EFD0E00010001CF6F45
:1038E000CB0E00010001CE6F40ECA4F0010E0001F0
:1038F0000001CB6FF40E0001CA6F1AECA7F0F7ECD1
:10390000A7F0000E286E0A0E276E12002B50090A2F
:103910002C10D8A43BD000010001F051D8B436D00F
:103920002850800A800F0B0ED8B4275CD8A02ED068
:103930000001D46F000E00010001F06F0001D451AE
:103940000001D46F000E000100019A6F0001D451F4
:10395000000E2C6E000E2B6EFD0E00010001CF6FCD
:10396000910E00010001CE6F40ECA4F0010E0001A9
:103970000001CB6FF40E0001CA6F1AECA7F0F7EC50
:10398000A7F0000E286E000E276E12002C50800A41
:10399000800F010ED8B42B5CD8A012002850800AEA
:1039A000800F190ED8B4275CD8A01200000E2C6E20
:1039B000140E2B6E000E286E000E276E1200000EE5
:1039C00000010001DB6F000E0001DA6F0001000151
:1039D000DB51800A800F330ED8B4DA5DD8B094D2B0
:1039E000000E00010001D36F000E0001D26F38D02D
:1039F000DAC0C2F0DBC0C3F0000E00010001C56FE9
:103A00001C0E0001C46FE9ECA6F0070E00010001D6
:103A1000D2250001CE6F000E00010001D32100016C
:103A2000CF6F5C0E0001D06F080ED16F0001CE5138
:103A30000001D0270001CF510001D1230001000176
:103A4000C2510001D025D96E00010001C35100010F
:103A5000D121DA6E000EDF6E00010001D24BD32BB4
:103A6000FF0E0001CE6FFF0ECF6FDAC0C2F0DBC0D9
:103A7000C3F0000E00010001C56F1C0E0001C46FF1
:103A8000E9ECA6F0070E00010001C227000E0001BC
:103A9000C3235C0E0001D06F080ED16F000100013E
:103AA000C2510001D02700010001C3510001D12300
:103AB000D0C0C8F0D1C0C9F0FFECA5F00001CE51D4
:103AC00000010001C8270001CF5100010001C923F6
:103AD00000010001D25100010001C85D0001000198
:103AE000D35100010001C959D8B082D7DAC0C2F061
:103AF000DBC0C3F0000E00010001C56F1C0E000109
:103B0000C46FE9ECA6F00C0E00010001C227000E04
:103B10000001C3235C0E00010001C225D96E080E0E
:103B200000010001C321DA6E000EDE6E000EDD6EB4
:103B3000000E00010001D56F000E0001D46F2ED0E1
:103B4000DAC0C2F0DBC0C3F0000E00010001C56F97
:103B50001C0E0001C46FE9ECA6F05C0E0001CE6FF4
:103B6000080ECF6F00010001C2510001CE270001F5
:103B70000001C3510001CF2300010001D451000115
:103B8000CE25D96E00010001D5510001CF21DA6E9A
:103B9000000EDF6E00010001D44BD52BFF0E00019B
:103BA000CE6FFF0ECF6FDAC0C2F0DBC0C3F0000EE5
:103BB00000010001C56F1C0E0001C46FE9ECA6F006
:103BC0005C0E0001D06F080ED16F00010001C251E0
:103BD0000001D02700010001C3510001D123D0C052
:103BE000C8F0D1C0C9F0FFECA5F00001CE51000132
:103BF0000001C8270001CF5100010001C9230001C5
:103C00000001D45100010001C85D00010001D5513F
:103C100000010001C959D8B093D7DAC0C2F0DBC0A7
:103C2000C3F0000E00010001C56F1C0E0001C46F3F
:103C3000E9ECA6F0050E00010001C227000E00010C
:103C4000C3235C0E00010001C225D96E080E0001DD
:103C50000001C321DA6E000EDE6E000EDD6E000E76
:103C600000010001D76F000E0001D66F38D0DAC016
:103C7000C2F0DBC0C3F0000E00010001C56F1C0ED6
:103C80000001C46FE9ECA6F00E0E00010001D6257C
:103C90000001CE6F000E00010001D7210001CF6F9F
:103CA0005C0E0001D06F080ED16F0001CE510001F3
:103CB000D0270001CF510001D12300010001C251E2
:103CC0000001D025D96E00010001C3510001D121AE
:103CD000DA6E000EDF6E00010001D64BD72BFF0E0F
:103CE0000001CE6FFF0ECF6FDAC0C2F0DBC0C3F0B1
:103CF000000E00010001C56F1C0E0001C46FE9EC4D
:103D0000A6F00E0E00010001C227000E0001C32321
:103D10005C0E0001D06F080ED16F00010001C2518E
:103D20000001D02700010001C3510001D123D0C000
:103D3000C8F0D1C0C9F0FFECA5F00001CE510001E0
:103D40000001C8270001CF5100010001C923000173
:103D50000001D65100010001C85D00010001D751EA
:103D600000010001C959D8B082D7DAC0C2F0DBC067
:103D7000C3F0000E00010001C56F1C0E0001C46FEE
:103D8000E9ECA6F0130E00010001C227000E0001AD
:103D9000C3235C0E00010001C225D96E080E00018C
:103DA0000001C321DA6E000EDE6E000EDD6E000E25
:103DB00000010001D96F000E0001D86F38D0DAC0C1
:103DC000C2F0DBC0C3F0000E00010001C56F1C0E85
:103DD0000001C46FE9ECA6F0150E00010001D82522
:103DE0000001CE6F000E00010001D9210001CF6F4C
:103DF0005C0E0001D06F080ED16F0001CE510001A2
:103E0000D0270001CF510001D12300010001C25190
:103E10000001D025D96E00010001C3510001D1215C
:103E2000DA6E000EDF6E00010001D84BD92BFF0EB9
:103E30000001CE6FFF0ECF6FDAC0C2F0DBC0C3F05F
:103E4000000E00010001C56F1C0E0001C46FE9ECFB
:103E5000A6F0150E00010001C227000E0001C323C9
:103E60005C0E0001D06F080ED16F00010001C2513D
:103E70000001D02700010001C3510001D123D0C0AF
:103E8000C8F0D1C0C9F0FFECA5F00001CE5100018F
:103E90000001C8270001CF5100010001C923000122
:103EA0000001D85100010001C85D00010001D95195
:103EB00000010001C959D8B082D7DAC0C2F0DBC016
:103EC000C3F0000E00010001C56F1C0E0001C46F9D
:103ED000E9ECA6F01A0E00010001C227000E000155
:103EE000C3235C0E00010001C225D96E080E00013B
:103EF0000001C321DA6E000EDE6E000EDD6E0001E1
:103F00000001DA4BDB2B62D5000E00010001856F4A
:103F1000000E0001846F000E00010001896F000E89
:103F20000001886F000E00010001876F000E000184
:103F3000866F000E000100018B6F000E00018A6F7A
:103F40000001CE6F000E00010001976F0001CE51FD
:103F50001200000E00010001D06F000E0001CF6FB3
:103F6000000E00010001D26F000E0001D16F730E30
:103F7000CFECA7F07F0ECFECA7F04ED0000ECFEC29
:103F8000A7F0060ECFECA7F006D0000ECFECA7F0FE
:103F9000060ECFECA7F0000E00010001D06F060E58
:103FA00020D0000ECFECA7F0070ECFECA7F0000E4C
:103FB00000010001D06F070E14D0000ECFECA7F067
:103FC000060ECFECA7F0000E00010001D06F060E28
:103FD0000001CF6F000ECFECA7F0030ECFECA7F0DF
:103FE00009D00001CF6F38D0000ECFECA7F0030E40
:103FF000CFECA7F0000E00010001D06F030EF1D747
:10400000000ECFECA7F0000ECFECA7F0000E0001E1
:104010000001D06F000EE5D70001C8C0CAF0000152
:10402000C9C0CBF00001CB51000AD8A4E9D70001E8
:10403000CA51100AD8B4A2D7010AD8B4A6D7030A25
:10404000D8B4AFD7010AD8B4B8D7330AD8B4C2D7D6
:10405000010AD8B4C9D7D4D700010001C851CFECA8
:10406000A7F000010001C85100010001D1270001A3
:104070000001C95100010001D223000E000100011E
:10408000D46F000E0001D36F52D00001C4C0CAF03B
:104090000001C5C0CBF000010001D3510001CA27C7
:1040A00000010001D4510001CB23CAC0F6FFCBC0F0
:1040B000F7FF000EF86E0E0EF76403D00800F550FF
:1040C00005D0F6CFE9FFF7CFEAFFEF50CFECA7F02E
:1040D0000001C4C0CAF00001C5C0CBF0000100015E
:1040E000D3510001CA2700010001D4510001CB23A4
:1040F000CAC0F6FFCBC0F7FF000EF86E0E0EF764D5
:1041000003D00800F55005D0F6CFE9FFF7CFEAFF5E
:10411000EF500001CC6F0001CC5100010001D1270C
:10412000000E0001D22300010001D34BD42BFD0E61
:104130000001CA6FFF0ECB6F0001CFC0CCF00001B1
:10414000D0C0CDF00001CA510001CC270001CB51F5
:104150000001CD230001CD51800A0001CE6F000186
:104160000001D3510001CC5D00010001D451800A4F
:104170000001CE59D8B089D70001C7C0CAF0CAC063
:10418000CBF00001CC6B0001CB51CFECA7F00001CC
:104190000001C75100010001D127000E0001D22308
:1041A00000010001C651CFECA7F000010001C6518B
:1041B00000010001D127000E0001D2230001D2C06E
:1041C000CAF00001CB6BCABFCB690001CA51CFEC6A
:1041D000A7F000010001D151CFECA7F01200B7EC1D
:1041E000A7F088ECA7F04AECA7F077ECA6F071EC0A
:1041F000A7F0FF0E00010001CF6FA60E0001000125
:10420000CE6FF1ECA2F07DECA5F0000100017B5136
:10421000241804E1000100017A512318D8A49BD08E
:10422000000100017D51261804E1000100017C51CC
:104230002518D8A490D0000100018D51800A480FA4
:10424000410ED8B48C5DD8A009D0000E0001000149
:104250008D6F000E00018C6FD7ECA3F00001000100
:104260009851D8B40AD09EEC91F00001EF6F000E87
:1042700000010001986F0001EF510001000195510C
:10428000D8B440D00001EF6F000E000100019A6F1A
:104290000001EF510001EF6F010E00010001946F6A
:1042A0000001EF510001EF6F000E00010001956F5A
:1042B0000001EF510001EF6F000E00010001F06FEF
:1042C0000001EF510001EF6F000E00010001936F3C
:1042D0000001EF510001EF6F000E00010001926F2D
:1042E0000001EF51000E00010001836F090E000173
:1042F000826F000E2C6E000E2B6E000E286E000ECC
:10430000276E0FD0000100019751D8B40AD0DFEC1E
:104310009CF00001EF6F000E00010001976F00019B
:10432000EF51000100019A51D8A4F1EC99F000017D
:1043300000019451D8A4F4EC96F0000100019651CC
:10434000D8A4D7ECA3F0000100019951D8B45DD7EF
:1043500077ECA6F05AD742EC8BF057D70001000E4D
:1043600000010001D46F0001CC0E00010001D36FE9
:1043700091D000010001D551250AD8B40CD0C8C095
:10438000D9FFC9C0DAFF0001D5C0DFFF000100017D
:10439000C84BC92B7FD00001D06F000E0001000177
:1043A000D26F0001D05157D0D3C0D9FFD4C0DAFFAB
:1043B0000001DECFD6F00001DDCFD7F0020E000104
:1043C0000001D327000E0001D42300010001D751C2
:1043D000D611D8A429D0FF0E00010001D76FB70E67
:1043E00000010001D66F20D00001D6C0F6FF000109
:1043F000D7C0F7FF000EF86EC8C0D9FFC9C0DAFFFA
:104400000E0EF76403D00800F55005D0F6CFE9FF93
:10441000F7CFEAFFEF50DF6E00010001D64BD72B3C
:1044200000010001C84BC92B0001D6C0F6FF0001F6
:10443000D7C0F7FF000EF86E0E0EF76403D0080029
:10444000F55005D0F6CFE9FFF7CFEAFFEF500009AE
:10445000D8B420D0C9D700010001CA510001D06FE3
:1044600000010001CB510001D16F0001CA4BCB2BE1
:10447000D0C0F6FFD1C0F7FF000EF86E08000001B3
:10448000F5CFD5F00001D551000AD8B41DD0730A7C
:10449000D8B48AD700010001CA510001D06F0001D1
:1044A0000001CB510001D16F0001CA4BCB2BD0C012
:1044B000F6FFD1C0F7FF000EF86E08000001F5CF3F
:1044C000D5F00001D56755D7C8C0D9FFC9C0DAFFFC
:1044D000000EDF6E1200E9CF15F0EACF16F0E1CF43
:1044E00017F0E2CF18F0D9CF19F0DACF1AF0F3CFE6
:1044F0001BF0F4CF1CF0F6CF1DF0F7CF1EF0F8CF75
:104500001FF0F5CF20F09EAA1CD0A8ECA7F03D6EBE
:10451000234A242A2450800A800F800ED8B4235CBA
:10452000D8A004D0000E246E000E236E0101000EF0
:104530002324D96E0101010E2420DA6E3DC0DFFF75
:104540009E9AA4AA1CD099ECA7F03E6E254A262A72
:104550002650800A800F800ED8B4255CD8A004D0E5
:10456000000E266E000E256E0201000E2524D96E67
:104570000201020E2620DA6E3EC0DFFFA49AF2A4EA
:1045800013D0F294ED0ED66E850ED76E00010001A9
:104590008C4B8D2B2850800A800F0A0ED8B4275CD4
:1045A000D8A002D0274A282A20C0F5FF1FC0F8FF54
:1045B0001EC0F7FF1DC0F6FF1CC0F4FF1BC0F3FFB9
:1045C0001AC0DAFF19C0D9FF18C0E2FF17C0E1FF17
:1045D00016C0EAFF15C0E9FF14C0FBFF13C0FAFFC5
:1045E0001100000E00010001D36F000E0001D26F18
:1045F000FF0E0001D06FFF0ED16F00010001CFC090
:10460000C9F000010001CEC0C8F0FFECA5F0000128
:10461000D05100010001C8270001D1510001000163
:10462000C923E90E00010001C85D030E0001C9594C
:10463000D8B01200000E00010001D36F000E00017F
:10464000D26F20D0ADA2FED70001CEC0D0F00001C5
:10465000CFC0D1F000010001D2510001D0270001EC
:104660000001D3510001D123D0C0F6FFD1C0F7FF24
:10467000000EF86E0800F550D9ECA7F0000100011B
:10468000D24BD32BFF0E0001D06FFF0ED16F000174
:104690000001CFC0C9F000010001CEC0C8F0FFEC9E
:1046A000A5F00001D05100010001C8270001D1513F
:1046B00000010001C92300010001D25100010001E5
:1046C000C85D00010001D35100010001C959D8A003
:1046D0001200B8D7CCC0D0F0CDC0D1F0D0C0C2F05D
:1046E000D1C0C3F0CEC0C4F0CFC0C5F0A0ECA4F0E0
:1046F0000001C2C0D0F00001C3C0D1F00001000130
:10470000CA4BCB2B00010001D151D011D8A4E6D760
:10471000CAC0D9FFCBC0DAFF000EDF6E0001000176
:10472000CA07D8A0CB07CCC0C2F0CDC0C3F0CEC062
:10473000C4F0CFC0C5F0F5ECA4F000010001C251F7
:1047400000010001D26FCCC0C2F0CDC0C3F0CEC01A
:10475000C4F0CFC0C5F0A0ECA4F00001C2C0CCF002
:104760000001C3C0CDF0090E00010001D26504D0E4
:10477000070E00010001D227300E00010001D227F0
:10478000CAC0D9FFCBC0DAFF0001D2C0DFFF0001F1
:104790000001CA07D8A0CB0700010001CD51CC1100
:1047A000D8A4C1D700010001CA4BCB2B1200000EC8
:1047B00000010001836F090E0001826FFF0E0001EE
:1047C0000001C56FFB0E00010001C46FFF0E000168
:1047D0000001C76FFF0E0001C66F000E000100014F
:1047E000C96F210E0001C86FA9EC9FF0FF0E0001F8
:1047F0000001C56FF90E00010001C46FFF0E00013A
:104800000001C76FFF0E0001C66F000E000100011E
:10481000C96F210E0001C86FA9EC9FF0FF0E0001C7
:104820000001C56FFD0E00010001C46FFF0E000105
:104830000001C76FFF0E0001C66F000E00010001EE
:10484000C96F210E0001C86FA9EC9FF0030E000193
:104850000001CB6FE80E0001CA6F1AECA7F000014F
:10486000D56F010E00010001956F0001D5510001C7
:10487000D56F000E00010001966F0001D5511200A6
:10488000000E00010001D36F000E0001D26F000E78
:1048900000010001D36F000E0001D26F29D0A8A241
:1048A000FED70001CEC0D0F00001CFC0D1F0000192
:1048B0000001D2510001D02700010001D3510001B5
:1048C000D123D0C0F6FFD1C0F7FF000EF86E0E0E58
:1048D000F76403D00800F55005D0F6CFE9FFF7CF15
:1048E000EAFFEF50EDECA7F000010001D24BD32B13
:1048F000FF0E0001D06FFF0ED16F00010001CFC08D
:10490000C9F000010001CEC0C8F0FFECA5F0000125
:10491000D05100010001C8270001D1510001000160
:10492000C92300010001D25100010001C85D00014E
:104930000001D35100010001C959D8A01200AFD71E
:10494000000E00010001C96F000E0001C86F0001D8
:104950000001C551C411D8B443D00001C66F010E87
:1049600000010001C76F0001C65109D0000100011C
:104970000001D890C437C53700010001C72B0001E2
:104980000001C5AFF3D7000100010001D890C8377E
:10499000C93700010001C45100010001C25D0001DE
:1049A0000001C55100010001C359D8A00FD000017A
:1049B0000001C45100010001C25F00010001C551A6
:1049C00000010001C35B00010001C881000100017A
:1049D0000001D890C533C43300010001C72FD3D7DD
:1049E000C8C0C2F0C9C0C3F0120000010001C55127
:1049F000C411D8B43AD00001C66F010E0001000105
:104A0000C76F0001C65109D0000100010001D89014
:104A1000C437C53700010001C72B00010001C5AF35
:104A2000F3D700010001C45100010001C25D000183
:104A30000001C55100010001C359D8A00CD00001EC
:104A40000001C45100010001C25F00010001C55115
:104A500000010001C35B000100010001D890C533D3
:104A6000C43300010001C72FDCD7C2C0C2F0C3C0ED
:104A7000C3F01200E8CFC7F0000EA86E000E9C6EC7
:104A800000010001C7B1A88800010001C7A302D03E
:104A9000A88C9C8C00010001C7B5A88E0001000104
:104AA000C7A702D09C8801D09C8A00010001C7A939
:104AB00002D0A88401D0A89400010001C7BB9C8645
:104AC00000010001C7AD02D0A38A01D0A39A000162
:104AD0000001C7AF02D0A38801D0A398C2C0ABFF2A
:104AE0000001C3C0C4F0C4C0C5F00001C66B000122
:104AF000C5517D6EA88A9C8E12000001C26F010E06
:104B0000000100019A6F0001C2510001C26F000E46
:104B100000010001956F0001C2510001C26F000E3B
:104B200000010001F06F0001C2510001C26F000ED0
:104B300000010001936F0001C2510001C26F000E1D
:104B400000010001926F0001C2510001C26F000E0E
:104B500000010001946F0001C251000E2C6E140E72
:104B60002B6E000E00010001836F000E0001826FAA
:104B70000001C26F000E386E0001C2511200E8CF72
:104B8000C7F0000EAD6E000EAC6E00010001C7B1A3
:104B9000AD8800010001C7A302D0AD8CAC8C000130
:104BA0000001C7B5AD8E00010001C7A702D0AC88D7
:104BB00001D0AC8A00010001C7B9AD840001000139
:104BC000C7BBAC8600010001C7AD02D09D8A01D0F1
:104BD0009D9A00010001C7AF02D09D8801D09D9829
:104BE000C2C0B0FF0001C3C0C4F0C4C0C5F0000122
:104BF000C66B0001C5517F6EAD8AAC8E12000001FC
:104C00000001C9C0CDF000010001C8C0CCF004D043
:104C100000010001CC4BCD2B0001CCC0F6FF000100
:104C2000CDC0F7FF000EF86E0E0EF76403D008003B
:104C3000F55005D0F6CFE9FFF7CFEAFFEF500009B6
:104C4000D8A4E6D70001C8C0CAF00001C9C0CBF0A3
:104C50000001CA1FCB1FCA4BCB2B00010001CC5156
:104C60000001CA2500010001C86F00010001CD51FB
:104C70000001CB210001C96F120002EE80F01BEE93
:104C800054F0EE6AE550E150FCE1E250FAE102EE48
:104C900000F0800EEE6AE806FDE101EE00F0BC0EC9
:104CA000EE6AE806FDE100EE60F0620EEE6AE806EC
:104CB000FDE100EE21F01F0EEE6AE806FDE1FA0EBE
:104CC000F66E4F0EF76E010EF86E0900F5CFF0F09C
:104CD0000900F5CFF1F0FC0EF66E4F0EF76E010EE7
:104CE000F86E0900F5CF40F00001EFEFA0F00001F1
:104CF000C86F000E00010001CA6F0001C851000119
:104D0000C86F190E00010001C96F0001C851000EE3
:104D10000E010E01BF6F070E0E010E01F76F060E9A
:104D20000E010E01C86F010E0E010E01BF6F0F01C3
:104D30000F014881929292800001C86F7C0E0001A1
:104D40000001CA6F0001C85100010001C9C0C2F0D2
:104D500000010001C36B00010001CA513AECA5F04B
:104D6000120000010001D4C0DAF000010001D3C03C
:104D7000D9F000010001D651800AF36E800EF35C79
:104D8000000ED8B4D55DD8B011D0D3C0D9FFD4C0EF
:104D9000DAFF2D0EDF6E00010001D34BD42B000192
:104DA0000001D56D0001D61FD8B0D62B000100013F
:104DB000D4C0CBF000010001D3C0CAF0D5C0CCF004
:104DC000D6C0CDF0D7C0CEF0D8C0CFF06AECA3F0FB
:104DD000120000010001C25100010001C403F3CF21
:104DE000C6F0F4CFC7F000010001C251000100017C
:104DF000C503F3CFF4FFF36AF35000010001C627A7
:104E0000F45000010001C72300010001C35100015B
:104E10000001C403F3CFF4FFF36AF3500001000173
:104E2000C627F45000010001C723C6C0C2F0C7C0A6
:104E3000C3F01200000E00010001CE6F000E000151
:104E4000CD6F0CD00D0E0001CC6FFC0EE82EFED7FE
:104E5000CC2FFCD700010001CD4BCE2BCAC0C2F035
:104E6000CBC0C3F0000E00010001C56F0A0E0001A7
:104E7000C46FA0ECA4F000010001C25100010001C8
:104E8000CD5D00010001C35100010001CE59D8B031
:104E90001200D8D70001C86F000E00010001CA6FD0
:104EA0000001C8510001C86F190E00010001C96F4F
:104EB0000001C851949C948E0001C86F7C0E0001C3
:104EC0000001CA6F0001C85100010001C9C0C2F051
:104ED00000010001C36B00010001CA51BFECA5F045
:104EE0001200CD86000E0F010F013F6F000E0F0163
:104EF0000F013E6F0F013FAF07D00F013FABC5EC75
:104F0000A7F00F010F013F9F0F010F013F9B120000
:104F1000000ED56ED58ED59CD550F80B0309D56EF5
:104F2000D596F28AF294F184ED0ED66E850ED76E88
:104F30001200F20E30169CAC03D030909CB0308042
:104F40009CB430849CB23086AACF12F0125012006A
:104F5000F20E2F16ACAC03D02F90ACB02F80ACB4B7
:104F60002F84ACB22F86AFCF12F012501200D08E29
:104F7000F28EF28C93968196939481949498829871
:104F800094968296949282921200F29C550EA76E8D
:104F9000AA0EA76E0F010F013F8BF28C1200E8CF13
:104FA000C3F0ADA2FED700010001C351D9ECA7F0B8
:104FB0001200E8CFC2F0ADAC03D0AD902FB2AD80FF
:104FC000C2C0AEFF1200E8CFC3F0A8A2FED7000116
:104FD0000001C351EDECA7F01200E8CFC2F0A8AC7D
:104FE00003D0A89030B2A880C2C0A9FF1200A8A226
:0E4FF000FED70D0EEDECA7F01200010101003E
:08FFF800BEF4FCFF61FDBFF344
:00000001FF
